:020000041000EA
:10100000500500201D100010000000009D10001071
:101010000018040000010000000000801149124A7D
:10102000124B00F018F8124880471249124A134B2D
:1010300000F011F81249134A134B00F00CF8134951
:10104000134A0020521A02DD043A8850FCDC114891
:101050008047114880479B1A03DD043BC858D05095
:10106000FBDC7047742200100C00002050010020AF
:10107000A1100010B823001050050020900500209A
:10108000F823001090050020900500209005002016
:10109000A005002061210010F11F0010FEE70000F4
:1010A00080B500AF00F044FE00F090FEBD4680BD6C
:1010B00080B500AF2A4B1A68FF231B0213401A0A9F
:1010C000284B1A60274B1B68002B37D0244B1B681A
:1010D000FF221A40244B1A60214BDB690322134084
:1010E0001A02214B1B681A431F4B1A601C4BDA690A
:1010F00080239B0013400ED11A4B1B689A021A4B97
:101100001B68D3181948191C00F0E6FB031C1A01D0
:10111000174B1A6021E000F02FF8031C9901114BC6
:101120001B689A02104B1B68D318081C191C00F08E
:10113000D3FB031C1A010E4B1A600EE0084BDA6950
:1011400080239B00134003D1094B0A4A1A6004E034
:1011500000F012F8021C064B1A60BD4680BDC04666
:1011600000030140900500209405002000001BB7FB
:10117000FC3F0020006CDC0280B500AF014B181C66
:10118000BD4680BD002D310190B585B000AFF8603F
:101190007A600B23FB180A1C1A700B23FB181B78B0
:1011A0009B08DBB2181C0B23FB181B789B08DBB2D7
:1011B0001A1CFB6804329200D3580B22BA1812781A
:1011C00003210A40D200111CFC228A40D2431A405B
:1011D000111CFB68021D9200D150FB685B6F0B2253
:1011E000BA1812785200111C03228A40D2431A40C6
:1011F000FB685A670B23FB181B78DB08DBB2181C53
:101200000B23FB181B78DB08DBB21A1CFB681032BF
:101210009200D3580B22BA18127807210A40920084
:10122000111C04228A40D2431A40111CFB68021C84
:1012300010329200D1500B23FB181B78DB08DBB275
:10124000181C0B23FB181B78DB08DBB21A1CFB688D
:1012500010329200D2587B685B781C1C0B23FB1861
:101260001B7807210B409B009C40231C1A43111C38
:10127000FB68021C10329200D150FB68204A934256
:101280000BD1FB681B6E0B22BA181278012191401A
:101290000A1CD2431A40FB681A667B681B78DBB2D3
:1012A0005BB2002B07DA7B685A680B23FB181B78AC
:1012B0009A40FB685A600B23FB181B789B08DBB233
:1012C000181C0B23FB181B789B08DBB21A1CFB684D
:1012D00004329200D2587B681B781C1C0B23FB182D
:1012E0001B7803210B40DB009C40231C1A43111C7C
:1012F000FB68021D9200D150BD4605B090BDC046AE
:101300000002044080B500AF024BC3225A62BD46C2
:1013100080BDC0460000014080B500AF054BC02233
:101320005A62C046034B5B6A04221340FAD1BD46A1
:1013300080BDC0460000014080B586B000AF786037
:10134000FFF7EAFF7B689B79302B53D0FFF714FF40
:10135000021E494B9A4209D9484A48499023CB5A20
:101360009BB240210B4399B29023D152434A434947
:101370009023CB5A9BB29BB2191C322399430B1C6E
:1013800099B27B689B799BB20B439BB299B2902335
:10139000D1523B4B02229A623A4B3A4A52693A493D
:1013A0000A405A61394B7B6100E0C0467B69013BD2
:1013B0007B617B69002BF8D1324B324A5269C021E4
:1013C00089040A435A61C0462E4B5A6980235B0444
:1013D0001340F9D12E4B3B6100E0C0463B69013B15
:1013E0003B613B69002BF8D1254B1B6A022213405D
:1013F000CFD109E0214A21499023CB5A9BB2302119
:101400000B4399B29023D1521C4A7B68DB7999B285
:101410008C23D1527B68DB79002B09D11D4BFB60FB
:1014200000E0C046FB68013BFB60FB68002BF8D185
:10143000144B144AD26918490A40796889880A43CA
:10144000DA61104A0F4B1B68144919407B68DB684E
:1014500019437B689B680B431360FFF753FF7B685E
:101460009B781A1C7B681B88101C191C00F032F832
:10147000BD4606B080BDC046002D310100100140C0
:101480003800014000030140FFFFFFFD1A02000089
:101490007D0A0000A02E6300FFFDFFFFFFFFF0FFAD
:1014A00080B582B000AF7860FFF736FF084B084A7E
:1014B00011697A680A431A61C046054B1A6880238D
:1014C000DB051340F9D1FFF71DFFBD4602B080BD1B
:1014D0000003014080B584B000AF78603960FFF749
:1014E0001BFF274B1A68FF231B0213401B0AFB60DC
:1014F000234B234AD26903218A43111C3A68120AFA
:101500000A43DA611E4B1E4A12681E4911403A68AE
:10151000FF2002400A431C490A431A60C046184B88
:101520001A688023DB051340F9D1FA687B689A4278
:1015300006D8FA687B68101C191C00F053F805E007
:10154000FA687B68101C191C00F022F80C4B0C4A3E
:1015500012680E4911407A6812020A430A490A4386
:101560001A60C046064B1A688023DB051340F9D188
:10157000FFF7C8FEFFF79CFDBD4604B080BDC04626
:101580000003014000FF0FC00000F03FFF000FC04C
:1015900080B582B000AF7860396014E07B689B084A
:1015A0007B600D4B0C4A12680C4911407A6812029C
:1015B0000A430B490A431A60C046074B1A68802346
:1015C000DB051340F9D13B689A007B689A42E5D36A
:1015D000BD4602B080BDC04600030140FF000FC001
:1015E0000000F03F80B582B000AF7860396019E04C
:1015F0007B68002B01D101237B607B689B007B60B3
:101600000C4B0C4A12680C4911407A6812020A43CA
:101610000A490A431A60C046064B1A688023DB0554
:101620001340F9D17B689A003B689A42E0D3BD46EB
:1016300002B080BD00030140FF000FC00000F03F7A
:1016400080B582B000AF021CFB1D1A703B1D0A1C46
:101650001A803B1D3A1D128803210A401A80FB1D87
:101660001B780F2B13D8184B174AD26EF91D097827
:101670004900081C03218140C9430A40391D0988DB
:10168000F81D0078400081400A43DA6618E0FB1D2F
:10169000FA1D12780F210A401A700B4B0A4A126F7A
:1016A000F91D09784900081C03218140C9430A40FB
:1016B000391D0988F81D0078400081400A431A67E7
:1016C000BD4602B080BDC0460000014080B582B07A
:1016D00000AF78607B6880225200DA60BD4602B0BD
:1016E00080BDC04680B582B000AF78607B68094A93
:1016F000934203D10420FFF7D3FE08E07B68064A3B
:10170000934204D180239B02181CFFF7C9FEBD46FB
:1017100002B080BD000004480040044880B582B09B
:1017200000AF78607B68181CFFF7DCFFBD4602B095
:1017300080BDC04680B584B000AF78600A1CFB1C39
:101740001A707B68181CFFF7E9FF7B68181CFFF70D
:10175000BDFF7B681B68FB60FB68074A1340FB60AA
:10176000FB1C1B789B03FA681343FB607B68FA68D9
:101770001A60BD4604B080BDFF3FFFFF80B582B058
:1017800000AF786039603B681A687B685A613B68D3
:101790005B799B06DB0FDBB21A057B685A603B68FE
:1017A0001B791B071B0FDBB21A1C7B685A623B6854
:1017B0005B791B071B0FDBB21A1C7B681A623B6844
:1017C0005B79DB06DB0FDBB21A1C7B689A613B6836
:1017D0001B791B061B0FDBB21A1C7B68DA62BD4645
:1017E00002B080BD80B586B000AF7860081C111CC7
:1017F000FB1C021C1A70BB1C0A1C1A70FB1C1B78F9
:101800000B2B20D89A00204BD3181B689F4603232C
:101810003B6100237B611BE00C233B6102237B6166
:1018200016E0C0239B003B6108237B6110E0C023CE
:101830001B013B610A237B610AE0C0239B013B61E2
:101840000C237B6104E000233B6100237B61C046E5
:101850003B69002B14D07B68A8229B58FB603B6936
:10186000DA43FB681340FB60BB1C1A787B699A4023
:10187000131CFA681343FB607B68A821FA685A506E
:10188000BD4606B080BDC046AC21001080B582B018
:1018900000AF7860081C111CFB1C021C1A70BB1CDA
:1018A0000A1C1A707B685B6FFA1C12785200111CBC
:1018B00003228A40D2431A407B685A677B685A6F7A
:1018C000BB1C1B78F91C097849008B401A437B68C4
:1018D0005A67BD4602B080BD80B588B000AF786061
:1018E0003960EFF310837B617B693B6172B63B69C2
:1018F000FB610C4B04225A630A4B7A681A62094B4B
:101900003A685A62074B9B6ABB61FB69FB60FB68E4
:10191000BB60BB6883F31088BB69181CBD4608B068
:1019200080BDC0460000034080B500AFBD4680BD0D
:1019300080B582B000AF78600A1CFB1C1A70FB1CDB
:101940001B7801229A407B68DA60BD4602B080BDF8
:1019500080B582B000AF78607B680122DA60BD4656
:1019600002B080BD80B582B000AF78607B68022293
:101970001A61BD4602B080BD80B582B000AF78600C
:101980000A1CBB1C1A80BB1C1A887B685A63BD46A4
:1019900002B080BD80B582B000AF78600A1CBB1C6D
:1019A0001A80BB1C1A887B68DA63BD4602B080BD12
:1019B00080B582B000AF786039607B683A681A61A0
:1019C000BD4602B080BDC04680B582B000AF786031
:1019D0000A1CFB1C1A707B68A4229A58FB1C1B78FB
:1019E000012199400B1C1A437B68A4215A50BD4623
:1019F00002B080BD90B585B000AF78600F23FB18B2
:101A000000221A707B6826229B5C01225340DBB2C5
:101A1000002B0CD07B6821229B5C002B07D10F236D
:101A2000FC187B68181C00F009F8031C23700F23B6
:101A3000FB181B78181CBD4605B090BD90B585B04D
:101A400000AF78607B681B690F22BC18181C00F07F
:101A50002FF9031C23707B681B699A687B681B7EC7
:101A6000101C191CFFF764FF7B685A697B68DB69EF
:101A7000101C191CFFF782FE7B68181C00F030F860
:101A80007B6825229B5C002B0FD07B6859697B68A3
:101A900020229B5C081C00211A1CFFF7A3FE7B6818
:101AA0005B69181C0021FFF78FFF7B685B69181CBE
:101AB000FFF758FF7B682622012199547B68242276
:101AC0009B5C002B04D07B685B69181CFFF740FF10
:101AD0000F23FB181B78181CBD4605B090BDC046EF
:101AE00080B582B000AF78607B685A697B685B8C98
:101AF000101C191CFFF740FF7B685B69181C002154
:101B0000FFF748FF7B681B699A687B68DB68101CDD
:101B1000191CFFF74DFFBD4602B080BD80B582B0F5
:101B200000AF021CFB1D1A70FB1D1B787F2B09D810
:101B3000064BFA1D1278111C1F220A400121914008
:101B40000A1C1A60BD4602B080BDC04600E100E03C
:101B5000B0B582B000AF021C3960FB1D1A70FB1DCE
:101B60001B787F2B27D82D4CFB1D1B785BB29B0865
:101B70002A49FA1D127852B29208C0329200525885
:101B8000F91D0978081C03210140C900081CFF2128
:101B90008140C94311403A689201FF200240F81D7C
:101BA0000078051C03202840C00082400A43C0334F
:101BB0009B001A512EE01A4CFB1D1B781A1C0F2398
:101BC0001340083B9908164AFB1D1B78181C0F236D
:101BD0000340083B9B0806339B00D3185B68FA1D43
:101BE0001278101C03220240D200101CFF228240F7
:101BF000D2431A403B689B01FF200340F81D007848
:101C0000051C03202840C00083401A438B1D9B0005
:101C1000E3185A60BD4602B0B0BDC04600E100E026
:101C200000ED00E080B582B000AF78607B689B7803
:101C30005BB2181CFFF772FFBD4602B080BDC04604
:101C400080B582B000AF78607B689A787B68DB787B
:101C5000191C53B2181CFFF77BFF7B689B78DAB224
:101C60007B689B785BB21B0299B27B681B889BB236
:101C70000B439BB29BB2101C191CFFF7E1FC7B6865
:101C80001B79002B03D07B68181CFFF7CBFF0023C8
:101C9000181CBD4602B080BD80B582B000AF786030
:101CA0007B6880225200DA60BD4602B080BDC0462B
:101CB00080B582B000AF78607B685B7B01225340C7
:101CC000DBB2002B0FD07B689A687B681B7B101CF3
:101CD000191CFFF72FFD7B689B68181CFFF7DCFFC2
:101CE0007B6801225A730023181CBD4602B080BDD8
:101CF00080B582B000AF78607B6819687B681A7B1A
:101D00007B680433081C111C1A1CFFF73DFA7B6822
:101D100019687B681A7B7B685B7B081C111C1A1C8A
:101D2000FFF7B4FD0023181CBD4602B080BDC046BD
:101D300080B500AF034B034A926E01218A439A6635
:101D4000BD4680BD0000014080B584B000AF786022
:101D50000F23FB1800221A700E23FB1800221A70A2
:101D60000D23FB1800221A700C23FB1800221A7096
:101D70000B23FB1800221A707B681B78012253404A
:101D8000DBB2002B1BD00E23FA180D23FB181278A0
:101D90001B781343DAB20C23FB181B781343D9B218
:101DA0000F23FB180B22BA1812780A431A700F235C
:101DB000FB181B78002B02D17B6801221A700F23BD
:101DC000FB181B78181CBD4604B080BD90B585B0CB
:101DD00000AF3B1C054A13CA13C312681A603B1CB0
:101DE000181CFFF7A9FABD4605B090BD642200108B
:101DF00090B583B000AFFB1D00221A70FC1D3D4B57
:101E0000181CFFF7A1FF031C2370FB1D1B78002B80
:101E100006D1FC1D384B181CFFF76AFF031C23700A
:101E2000FB1D1B78002B06D1FC1D344B181CFFF743
:101E30005FFF031C2370FB1D1B78002B06D1FC1DCC
:101E40002F4B181CFFF754FF031C2370FB1D1B783E
:101E5000002B06D1FC1D2B4B181CFFF749FF031C60
:101E60002370FB1D1B78002B06D1FC1D264B181C74
:101E7000FFF73EFF031C2370FB1D1B78002B06D1D0
:101E8000FC1D224B181CFFF733FF031C2370FB1DA6
:101E90001B78002B06D1FC1D1D4B181CFFF728FFDB
:101EA000031C2370FB1D1B78002B06D1FC1D194B56
:101EB000181CFFF71DFF031C2370FB1D1B78002B54
:101EC00006D1FC1D144B181CFFF7BAFE031C23702F
:101ED000FB1D1B78002B06D1FC1D104B181CFFF7B7
:101EE00089FD031C2370FB1D1B78181CBD4603B025
:101EF00090BDC04698050020E4210010F421001098
:101F00000422001014220010242200103422001099
:101F10004422001054220010DC210010580500203B
:101F200080B582B000AF78600A1CFB1C1A70FB1CE5
:101F30001B7801229A407B685A60BD4602B080BD82
:101F400080B582B000AF78600A1CFB1C1A70FB1CC5
:101F50001B78034A9A407B685A60BD4602B080BD38
:101F60000100010080B582B000AF78600A1CFB1C44
:101F70001A707B685A6AFB1C1B78DA40131C01221A
:101F80001340181CBD4602B080BDC04680B582B06B
:101F900000AF78607B681A687B681B7B101C191C7B
:101FA000FFF7BEFFBD4602B080BDC04680B582B01F
:101FB00000AF78607B681A687B681B7B101C191C5B
:101FC000FFF7BEFFBD4602B080BDC04680B582B0FF
:101FD00000AF78607B681A687B681B7B101C191C3B
:101FE000FFF7C0FF031C181CBD4602B080BDC046F1
:101FF00090B583B000AFFC1DFFF7FAFE031C237001
:10200000FB1D1B78002B00D0FEE7254B181CFFF7AB
:10201000DDFF031CDAB2234B1A70224B1B78002B16
:1020200016D100233B6002E03B6801333B603B6814
:102030001D4A9342F8D91D4B1B780133DAB21B4B72
:102040001A701A4B1B78022B02D9184B00221A70F7
:10205000164B1B78012B02D0022B1BD01EE0134B1A
:1020600001221A70124B181CFFF7B0FF031E012B40
:1020700003D1104B181CFFF799FF0F4B181CFFF7EB
:10208000A5FF031E012B04D10C4B181CFFF78EFF7C
:1020900004E003E0054B02221A70C046B5E7C046D3
:1020A000042200109D0500203E420F009C050020E8
:1020B000E421001024220010F4210010342200102A
:1020C00080B500AF1F4B1B78022B39D11E4B181C5B
:1020D000FFF77CFF031E012B05D11C4B1B7801333E
:1020E000DAB21A4B1A70194B1B78012B04D1184B1A
:1020F000181CFFF75BFF06E0154B181CFFF746FFA7
:10210000124B00221A70134B181CFFF75FFF031EBF
:10211000012B05D1104B1B780133DAB20E4B1A702C
:102120000D4B1B78012B04D10C4B181CFFF73EFF05
:1021300006E00A4B181CFFF729FF074B00221A7014
:10214000BD4680BD9C050020E42100109E050020B6
:1021500024220010F42100109F05002034220010DA
:102160000E4B70B500251E1C0D4CE41AA410A542A0
:1021700004D0AB00F35898470135F8E7FFF7D4FBDC
:10218000084B00251E1C084CE41AA410A54204D0DC
:10219000AB00F35898470135F8E770BD9005002073
:1021A0009005002090050020900500200E180010DA
:1021B0000E180010181800101818001046180010FB
:1021C000461800104618001046180010221800107B
:1021D0002E1800103A1800103A18001002000003E0
:1021E0000100000000020440180000000000000090
:1021F0000000000000020440180000000000000081
:10220000010000000002044008000000000000007F
:10221000020000000002044008000000000000006E
:1022200003000000000404408000000001000000E2
:1022300000000000000404408000000001000000D5
:1022400001000000000404408000000001000000C4
:1022500002000000000404408000000001000000B3
:102260000300000000000100000030030000010036
:04227000000000006A
:102274002C4800470000000000000000000000009F
:10228400000000000000000000000000000000004A
:1022940025480047000000000000000023480047D4
:1022A4002348004723480047234800472348004762
:1022B4002348004723480047234800472348004752
:1022C4002348004723480047234800472348004742
:1022D4002348004723480047234800472348004732
:1022E4002348004723480047234800472348004722
:1022F4002348004723480047234800472348004712
:102304002348004723480047234800472348004701
:1023140023480047234800472348004723480047F1
:10232400234800479D1000109D1000109D100010C0
:102334009D100010C12000109D1000109D10001071
:102344009D1000109D1000109D1000109D10001095
:102354009D1000109D1000109D1000109D10001085
:102364009D1000109D1000109D1000109D10001075
:102374009D1000109D1000109D1000109D10001065
:102384009D1000109D1000109D1000109D10001055
:102394009D1000109D1000109D1000109D10001045
:1023A4009D1000109D1000109D1000109D10001035
:0423B4009D10001068
:1023B800000000000A00000080F0FA0200D05485F6
:1023C8000A000000500000008005002000020448B8
:1023D800010000005005002000001AB701010000AC
:1023E80000D8B80501000000000004480000000003
:040000051000101DBA
:00000001FF
